:100000000A128A11F82F00308A000408840A820735
:1000100000343F3406345B344F3466346D347D3401
:0600200007347F346F3449
:1009DA00831203139F149F18F32CF42CF02C1E0877
:1009EA00F100831603131E08F00008008316031390
:1009FA0087100C30831203139D009B01073092006D
:100A0A0000300A128A113F250A128A110800162D8F
:100A1A000330F3009730F200F20B112DF30B112D76
:100A2A00162D0130F0020030031CF103F102700AA6
:100A3A00031D232D710A031D232D242D0D2D0800BE
:100A4A00831603130514051585150130831603173C
:100A5A0088008901B030831603139F00C3308312C4
:100A6A0003139F051F141F179F132130F000F00B6B
:100A7A003C2D0800F2007208F00002300310F00C5E
:100A8A00FF3E031D432D7008831203139B00720857
:100A9A000139F000F00E1D087006EF3970069D004E
:100AAA007208F0000310700C0139F100F10EF10D1B
:100ABA001D087106DF3971069D000800700871046F
:100ACA000319682D692D962D0130F400752D01301A
:100ADA000310F00DF10DFF3E031D6D2D0130F407DB
:100AEA00F11F782D792D6C2D71087302031D7F2D4E
:100AFA0070087202031C822D832D892D7008F20260
:100B0A007108031CF303F30201300310F10CF00C1B
:100B1A00FF3E031D8A2D0130F402031D952D962DEB
:100B2A00792D7308F1007208F0000800F401F5014C
:100B3A00700871040319A22DA32DD82D0130F600D7
:100B4A00AF2D01300310F00DF10DFF3E031DA72D4F
:100B5A000130F607F11FB22DB32DA62D0130031077
:100B6A00F40DF50DFF3E031DB42D71087302031D2C
:100B7A00C02D70087202031CC32DC42DCB2D700822
:100B8A00F2027108031CF303F30274140130031018
:100B9A00F10CF00CFF3E031DCC2D0130F602031DB3
:100BAA00D72DD82DB32D7508F1007408F000080070
:100BBA000030FC000030FB000030FA000030F90081
:100BCA00701CE82DE92D002E7408F9077508031129
:100BDA000318013E0319F22DFA07760803110318C8
:100BEA00013E0319F92DFB07770803110318013E8B
:100BFA000319002EFC070130F8000310F40DF50D5F
:100C0A00F60DF70DF80B022E01300310F30CF20C5F
:100C1A00F10CF00CFF3E031D0A2E730872047104D6
:100C2A007004031D192E1A2EE52D7C08F3007B088B
:100C3A00F2007A08F1007908F00008000A30F000A2
:100C4A000030F1007808F3007708F2000A128A11DE
:100C5A009B250A128A117008FA000A30F000003047
:100C6A00F1007808F3007708F2000A128A11632566
:100C7A000A128A117008FB008312031307168715DC
:100C8A002130F900F90B472E7A08013E84000A1236
:100C9A008A1103200A128A1183120313860007128B
:100CAA008715C730F900592EF90B582E5C2E5D2E88
:100CBA008312031307162130F900F90B622E7B0801
:100CCA00013E84000A128A1103200A128A11831231
:100CDA000313860007168711C730F900742EF90B23
:100CEA00732E772E782E8312031307168715860123
:100CFA0008007030831603138F000F1D852E862E71
:100D0A00822E8601880187018710871107128713AF
:100D1A000D3085000130831603178800890183127C
:100D2A0003138601880187010A128A1125250A12EE
:100D3A008A110A128A11FB240A128A110A128A11CA
:100D4A00ED240A128A11710883120313A500700890
:100D5A00A4002408F0002508F100F201F301003094
:100D6A00F7000030F6000130F500F430F4000A1202
:100D7A008A11DD250A128A11700883120313A00052
:100D8A007108A1007208A2007308A3000A300310B8
:100D9A00A30CA20CA10CA00CFF3E031DCC2E210813
:100DAA00A7002008A600003027023D3003192602BA
:100DBA00031CE02EE12EE52E3C30A6000030A700F1
:100DCA002708F4002608F3000A128A1106270A12D5
:100DDA008A11831203132708F8002608F7000A125B
:100DEA008A1123260A128A113230F0000030F100EB
:100DFA000A128A110C250A128A11A32E0A128A11C2
:100E0A000028F501831203130811881008108812AC
:100E1A0008128811881308138713003074020F30E0
:100E2A000319730203181A2F1B2F5E2F0030740246
:100E3A000530031973020318232F242F272F033099
:100E4A00F800352F003074020A30031973020318B0
:100E5A002F2F302F332F0230F800352F0130F800B2
:100E6A0078080319392F3A2F3B2F081402307802D9
:100E7A00031C402F412F422F881403307802031C91
:100E8A00472F482F492F08150230780203184E2F92
:100E9A004F2F522F8030F500F12F033078020318BC
:100EAA00572F582F5B2FC030F500F12FFF30F50078
:100EBA00F12F003074020F3003197302031C662FDE
:100ECA00672FA02F003074021F3003197302031812
:100EDA006F2F702FA02F0030740214300319730281
:100EEA000318782F792F7C2F0130F8008A2F0030D1
:100EFA0074021930031973020318842F852F882F5F
:100F0A000230F8008A2F0330F800780803198E2F70
:100F1A008F2F902F881502307802031C952F962F59
:100F2A00972F081603307802031C9C2F9D2F9E2FA3
:100F3A008816F501F12F7308E23EF60074080318CB
:100F4A00013EFF3EF70000307702153003197602A2
:100F5A00031CB02FB12FB52F1430F6000030F70064
:100F6A00003077020730031976020318BD2FBE2F0F
:100F7A00C12F0130F800CF2F003077020E3003194D
:100F8A0076020318C92FCA2FCD2F0230F800CF2FAF
:100F9A000330F80078080319D32FD42FD52F081758
:100FAA0002307802031CDA2FDB2FDC2F881703307C
:100FBA007802031CE12FE22FE32F87170230780211
:100FCA000318E82FE92FEA2F4F2F0330780203186E
:100FDA00EF2FF02F5B2F582F75080A128A113F2521
:100FEA000A128A11080083120313A601A7018301BA
:060FFA000A128A117E2E8E
:04400E00E423FF3F69
:00000001FF
